{
  "_format": "hh-sol-artifact-1",
  "contractName": "BillBoard",
  "sourceName": "contracts/BillBoard.sol",
  "abi": [
    {
      "inputs": [],
      "stateMutability": "nonpayable",
      "type": "constructor"
    },
    {
      "anonymous": false,
      "inputs": [
        {
          "indexed": true,
          "internalType": "address",
          "name": "owner",
          "type": "address"
        },
        {
          "indexed": true,
          "internalType": "address",
          "name": "approved",
          "type": "address"
        },
        {
          "indexed": true,
          "internalType": "uint256",
          "name": "tokenId",
          "type": "uint256"
        }
      ],
      "name": "Approval",
      "type": "event"
    },
    {
      "anonymous": false,
      "inputs": [
        {
          "indexed": true,
          "internalType": "address",
          "name": "owner",
          "type": "address"
        },
        {
          "indexed": true,
          "internalType": "address",
          "name": "operator",
          "type": "address"
        },
        {
          "indexed": false,
          "internalType": "bool",
          "name": "approved",
          "type": "bool"
        }
      ],
      "name": "ApprovalForAll",
      "type": "event"
    },
    {
      "anonymous": false,
      "inputs": [
        {
          "indexed": false,
          "internalType": "string",
          "name": "first",
          "type": "string"
        },
        {
          "indexed": false,
          "internalType": "string",
          "name": "second",
          "type": "string"
        },
        {
          "indexed": false,
          "internalType": "string",
          "name": "third",
          "type": "string"
        },
        {
          "indexed": false,
          "internalType": "uint256",
          "name": "price",
          "type": "uint256"
        },
        {
          "indexed": true,
          "internalType": "address",
          "name": "by",
          "type": "address"
        }
      ],
      "name": "BillboardUpdated",
      "type": "event"
    },
    {
      "anonymous": false,
      "inputs": [
        {
          "indexed": true,
          "internalType": "address",
          "name": "from",
          "type": "address"
        },
        {
          "indexed": true,
          "internalType": "address",
          "name": "to",
          "type": "address"
        },
        {
          "indexed": true,
          "internalType": "uint256",
          "name": "tokenId",
          "type": "uint256"
        }
      ],
      "name": "Transfer",
      "type": "event"
    },
    {
      "inputs": [
        {
          "internalType": "address",
          "name": "to",
          "type": "address"
        },
        {
          "internalType": "uint256",
          "name": "tokenId",
          "type": "uint256"
        }
      ],
      "name": "approve",
      "outputs": [],
      "stateMutability": "nonpayable",
      "type": "function"
    },
    {
      "inputs": [
        {
          "internalType": "address",
          "name": "owner",
          "type": "address"
        }
      ],
      "name": "balanceOf",
      "outputs": [
        {
          "internalType": "uint256",
          "name": "",
          "type": "uint256"
        }
      ],
      "stateMutability": "view",
      "type": "function"
    },
    {
      "inputs": [
        {
          "internalType": "uint256",
          "name": "tokenId",
          "type": "uint256"
        }
      ],
      "name": "getApproved",
      "outputs": [
        {
          "internalType": "address",
          "name": "",
          "type": "address"
        }
      ],
      "stateMutability": "view",
      "type": "function"
    },
    {
      "inputs": [],
      "name": "getCurrentPriceInWeis",
      "outputs": [
        {
          "internalType": "uint256",
          "name": "",
          "type": "uint256"
        }
      ],
      "stateMutability": "view",
      "type": "function"
    },
    {
      "inputs": [
        {
          "internalType": "address",
          "name": "owner",
          "type": "address"
        },
        {
          "internalType": "address",
          "name": "operator",
          "type": "address"
        }
      ],
      "name": "isApprovedForAll",
      "outputs": [
        {
          "internalType": "bool",
          "name": "",
          "type": "bool"
        }
      ],
      "stateMutability": "view",
      "type": "function"
    },
    {
      "inputs": [],
      "name": "name",
      "outputs": [
        {
          "internalType": "string",
          "name": "",
          "type": "string"
        }
      ],
      "stateMutability": "view",
      "type": "function"
    },
    {
      "inputs": [
        {
          "internalType": "uint256",
          "name": "tokenId",
          "type": "uint256"
        }
      ],
      "name": "ownerOf",
      "outputs": [
        {
          "internalType": "address",
          "name": "",
          "type": "address"
        }
      ],
      "stateMutability": "view",
      "type": "function"
    },
    {
      "inputs": [
        {
          "internalType": "address",
          "name": "from",
          "type": "address"
        },
        {
          "internalType": "address",
          "name": "to",
          "type": "address"
        },
        {
          "internalType": "uint256",
          "name": "tokenId",
          "type": "uint256"
        }
      ],
      "name": "safeTransferFrom",
      "outputs": [],
      "stateMutability": "nonpayable",
      "type": "function"
    },
    {
      "inputs": [
        {
          "internalType": "address",
          "name": "from",
          "type": "address"
        },
        {
          "internalType": "address",
          "name": "to",
          "type": "address"
        },
        {
          "internalType": "uint256",
          "name": "tokenId",
          "type": "uint256"
        },
        {
          "internalType": "bytes",
          "name": "_data",
          "type": "bytes"
        }
      ],
      "name": "safeTransferFrom",
      "outputs": [],
      "stateMutability": "nonpayable",
      "type": "function"
    },
    {
      "inputs": [
        {
          "internalType": "address",
          "name": "operator",
          "type": "address"
        },
        {
          "internalType": "bool",
          "name": "approved",
          "type": "bool"
        }
      ],
      "name": "setApprovalForAll",
      "outputs": [],
      "stateMutability": "nonpayable",
      "type": "function"
    },
    {
      "inputs": [
        {
          "internalType": "bytes4",
          "name": "interfaceId",
          "type": "bytes4"
        }
      ],
      "name": "supportsInterface",
      "outputs": [
        {
          "internalType": "bool",
          "name": "",
          "type": "bool"
        }
      ],
      "stateMutability": "view",
      "type": "function"
    },
    {
      "inputs": [],
      "name": "symbol",
      "outputs": [
        {
          "internalType": "string",
          "name": "",
          "type": "string"
        }
      ],
      "stateMutability": "view",
      "type": "function"
    },
    {
      "inputs": [
        {
          "internalType": "uint256",
          "name": "tokenId",
          "type": "uint256"
        }
      ],
      "name": "tokenURI",
      "outputs": [
        {
          "internalType": "string",
          "name": "",
          "type": "string"
        }
      ],
      "stateMutability": "view",
      "type": "function"
    },
    {
      "inputs": [],
      "name": "totalSupply",
      "outputs": [
        {
          "internalType": "uint256",
          "name": "",
          "type": "uint256"
        }
      ],
      "stateMutability": "pure",
      "type": "function"
    },
    {
      "inputs": [
        {
          "internalType": "address",
          "name": "from",
          "type": "address"
        },
        {
          "internalType": "address",
          "name": "to",
          "type": "address"
        },
        {
          "internalType": "uint256",
          "name": "tokenId",
          "type": "uint256"
        }
      ],
      "name": "transferFrom",
      "outputs": [],
      "stateMutability": "nonpayable",
      "type": "function"
    },
    {
      "inputs": [
        {
          "internalType": "string",
          "name": "firstLine",
          "type": "string"
        },
        {
          "internalType": "string",
          "name": "secondLine",
          "type": "string"
        },
        {
          "internalType": "string",
          "name": "thirdLine",
          "type": "string"
        }
      ],
      "name": "updateBillboard",
      "outputs": [],
      "stateMutability": "payable",
      "type": "function"
    },
    {
      "inputs": [
        {
          "internalType": "address payable",
          "name": "sendToAddress",
          "type": "address"
        },
        {
          "internalType": "uint256",
          "name": "amountInWei",
          "type": "uint256"
        }
      ],
      "name": "withdraw",
      "outputs": [],
      "stateMutability": "nonpayable",
      "type": "function"
    }
  ],
  "bytecode": "0x6080604052600060075560405180602001604052806000815250600890805190602001906200003092919062000608565b5060405180602001604052806000815250600990805190602001906200005892919062000608565b5060405180602001604052806000815250600a90805190602001906200008092919062000608565b503480156200008e57600080fd5b506040518060400160405280600981526020017f42696c6c426f61726400000000000000000000000000000000000000000000008152506040518060400160405280600981526020017f42494c4c424f415244000000000000000000000000000000000000000000000081525081600090805190602001906200011392919062000608565b5080600190805190602001906200012c92919062000608565b505050620001423360016200014860201b60201c565b62000aed565b6200016a8282604051806020016040528060008152506200016e60201b60201c565b5050565b620001808383620001dc60201b60201c565b620001956000848484620003c260201b60201c565b620001d7576040517f08c379a0000000000000000000000000000000000000000000000000000000008152600401620001ce906200089e565b60405180910390fd5b505050565b600073ffffffffffffffffffffffffffffffffffffffff168273ffffffffffffffffffffffffffffffffffffffff1614156200024f576040517f08c379a00000000000000000000000000000000000000000000000000000000081526004016200024690620008e2565b60405180910390fd5b62000260816200057c60201b60201c565b15620002a3576040517f08c379a00000000000000000000000000000000000000000000000000000000081526004016200029a90620008c0565b60405180910390fd5b620002b760008383620005e860201b60201c565b6001600360008473ffffffffffffffffffffffffffffffffffffffff1673ffffffffffffffffffffffffffffffffffffffff168152602001908152602001600020600082825462000309919062000931565b92505081905550816002600083815260200190815260200160002060006101000a81548173ffffffffffffffffffffffffffffffffffffffff021916908373ffffffffffffffffffffffffffffffffffffffff160217905550808273ffffffffffffffffffffffffffffffffffffffff16600073ffffffffffffffffffffffffffffffffffffffff167fddf252ad1be2c89b69c2b068fc378daa952ba7f163c4a11628f55a4df523b3ef60405160405180910390a45050565b6000620003f08473ffffffffffffffffffffffffffffffffffffffff16620005ed60201b6200116c1760201c565b156200056f578373ffffffffffffffffffffffffffffffffffffffff1663150b7a02620004226200060060201b60201c565b8786866040518563ffffffff1660e01b81526004016200044694939291906200084a565b602060405180830381600087803b1580156200046157600080fd5b505af19250505080156200049557506040513d601f19601f82011682018060405250810190620004929190620006cf565b60015b6200051e573d8060008114620004c8576040519150601f19603f3d011682016040523d82523d6000602084013e620004cd565b606091505b5060008151141562000516576040517f08c379a00000000000000000000000000000000000000000000000000000000081526004016200050d906200089e565b60405180910390fd5b805181602001fd5b63150b7a0260e01b7bffffffffffffffffffffffffffffffffffffffffffffffffffffffff1916817bffffffffffffffffffffffffffffffffffffffffffffffffffffffff19161491505062000574565b600190505b949350505050565b60008073ffffffffffffffffffffffffffffffffffffffff166002600084815260200190815260200160002060009054906101000a900473ffffffffffffffffffffffffffffffffffffffff1673ffffffffffffffffffffffffffffffffffffffff1614159050919050565b505050565b600080823b905060008111915050919050565b600033905090565b828054620006169062000a2e565b90600052602060002090601f0160209004810192826200063a576000855562000686565b82601f106200065557805160ff191683800117855562000686565b8280016001018555821562000686579182015b828111156200068557825182559160200191906001019062000668565b5b50905062000695919062000699565b5090565b5b80821115620006b45760008160009055506001016200069a565b5090565b600081519050620006c98162000ad3565b92915050565b600060208284031215620006e257600080fd5b6000620006f284828501620006b8565b91505092915050565b62000706816200098e565b82525050565b6000620007198262000904565b6200072581856200090f565b935062000737818560208601620009f8565b620007428162000ac2565b840191505092915050565b60006200075c60328362000920565b91507f4552433732313a207472616e7366657220746f206e6f6e20455243373231526560008301527f63656976657220696d706c656d656e74657200000000000000000000000000006020830152604082019050919050565b6000620007c4601c8362000920565b91507f4552433732313a20746f6b656e20616c7265616479206d696e746564000000006000830152602082019050919050565b60006200080660208362000920565b91507f4552433732313a206d696e7420746f20746865207a65726f20616464726573736000830152602082019050919050565b6200084481620009ee565b82525050565b6000608082019050620008616000830187620006fb565b620008706020830186620006fb565b6200087f604083018562000839565b81810360608301526200089381846200070c565b905095945050505050565b60006020820190508181036000830152620008b9816200074d565b9050919050565b60006020820190508181036000830152620008db81620007b5565b9050919050565b60006020820190508181036000830152620008fd81620007f7565b9050919050565b600081519050919050565b600082825260208201905092915050565b600082825260208201905092915050565b60006200093e82620009ee565b91506200094b83620009ee565b9250827fffffffffffffffffffffffffffffffffffffffffffffffffffffffffffffffff0382111562000983576200098262000a64565b5b828201905092915050565b60006200099b82620009ce565b9050919050565b60007fffffffff0000000000000000000000000000000000000000000000000000000082169050919050565b600073ffffffffffffffffffffffffffffffffffffffff82169050919050565b6000819050919050565b60005b8381101562000a18578082015181840152602081019050620009fb565b8381111562000a28576000848401525b50505050565b6000600282049050600182168062000a4757607f821691505b6020821081141562000a5e5762000a5d62000a93565b5b50919050565b7f4e487b7100000000000000000000000000000000000000000000000000000000600052601160045260246000fd5b7f4e487b7100000000000000000000000000000000000000000000000000000000600052602260045260246000fd5b6000601f19601f8301169050919050565b62000ade81620009a2565b811462000aea57600080fd5b50565b6134198062000afd6000396000f3fe6080604052600436106100fe5760003560e01c806370a0823111610095578063ba1827bd11610064578063ba1827bd14610345578063c87b56dd14610361578063e985e9c51461039e578063f3fef3a3146103db578063f86fb52714610404576100fe565b806370a082311461028b57806395d89b41146102c8578063a22cb465146102f3578063b88d4fde1461031c576100fe565b806318160ddd116100d157806318160ddd146101d157806323b872dd146101fc57806342842e0e146102255780636352211e1461024e576100fe565b806301ffc9a71461010357806306fdde0314610140578063081812fc1461016b578063095ea7b3146101a8575b600080fd5b34801561010f57600080fd5b5061012a60048036038101906101259190611dda565b61042f565b6040516101379190612a65565b60405180910390f35b34801561014c57600080fd5b50610155610511565b6040516101629190612a80565b60405180910390f35b34801561017757600080fd5b50610192600480360381019061018d9190611ec3565b6105a3565b60405161019f91906129fe565b60405180910390f35b3480156101b457600080fd5b506101cf60048036038101906101ca9190611d9e565b610628565b005b3480156101dd57600080fd5b506101e6610740565b6040516101f39190612d3c565b60405180910390f35b34801561020857600080fd5b50610223600480360381019061021e9190611c98565b610749565b005b34801561023157600080fd5b5061024c60048036038101906102479190611c98565b6107a9565b005b34801561025a57600080fd5b5061027560048036038101906102709190611ec3565b6107c9565b60405161028291906129fe565b60405180910390f35b34801561029757600080fd5b506102b260048036038101906102ad9190611bf7565b61087b565b6040516102bf9190612d3c565b60405180910390f35b3480156102d457600080fd5b506102dd610933565b6040516102ea9190612a80565b60405180910390f35b3480156102ff57600080fd5b5061031a60048036038101906103159190611d62565b6109c5565b005b34801561032857600080fd5b50610343600480360381019061033e9190611ce7565b610b46565b005b61035f600480360381019061035a9190611e2c565b610ba8565b005b34801561036d57600080fd5b5061038860048036038101906103839190611ec3565b610d60565b6040516103959190612a80565b60405180910390f35b3480156103aa57600080fd5b506103c560048036038101906103c09190611c5c565b610fc9565b6040516103d29190612a65565b60405180910390f35b3480156103e757600080fd5b5061040260048036038101906103fd9190611c20565b61105d565b005b34801561041057600080fd5b50610419611162565b6040516104269190612d3c565b60405180910390f35b60007f80ac58cd000000000000000000000000000000000000000000000000000000007bffffffffffffffffffffffffffffffffffffffffffffffffffffffff1916827bffffffffffffffffffffffffffffffffffffffffffffffffffffffff191614806104fa57507f5b5e139f000000000000000000000000000000000000000000000000000000007bffffffffffffffffffffffffffffffffffffffffffffffffffffffff1916827bffffffffffffffffffffffffffffffffffffffffffffffffffffffff1916145b8061050a57506105098261117f565b5b9050919050565b6060600080546105209061301d565b80601f016020809104026020016040519081016040528092919081815260200182805461054c9061301d565b80156105995780601f1061056e57610100808354040283529160200191610599565b820191906000526020600020905b81548152906001019060200180831161057c57829003601f168201915b5050505050905090565b60006105ae826111e9565b6105ed576040517f08c379a00000000000000000000000000000000000000000000000000000000081526004016105e490612c5c565b60405180910390fd5b6004600083815260200190815260200160002060009054906101000a900473ffffffffffffffffffffffffffffffffffffffff169050919050565b6000610633826107c9565b90508073ffffffffffffffffffffffffffffffffffffffff168373ffffffffffffffffffffffffffffffffffffffff1614156106a4576040517f08c379a000000000000000000000000000000000000000000000000000000000815260040161069b90612cbc565b60405180910390fd5b8073ffffffffffffffffffffffffffffffffffffffff166106c3611255565b73ffffffffffffffffffffffffffffffffffffffff1614806106f257506106f1816106ec611255565b610fc9565b5b610731576040517f08c379a000000000000000000000000000000000000000000000000000000000815260040161072890612bdc565b60405180910390fd5b61073b838361125d565b505050565b60006001905090565b61075a610754611255565b82611316565b610799576040517f08c379a000000000000000000000000000000000000000000000000000000000815260040161079090612cdc565b60405180910390fd5b6107a48383836113f4565b505050565b6107c483838360405180602001604052806000815250610b46565b505050565b6000806002600084815260200190815260200160002060009054906101000a900473ffffffffffffffffffffffffffffffffffffffff169050600073ffffffffffffffffffffffffffffffffffffffff168173ffffffffffffffffffffffffffffffffffffffff161415610872576040517f08c379a000000000000000000000000000000000000000000000000000000000815260040161086990612c1c565b60405180910390fd5b80915050919050565b60008073ffffffffffffffffffffffffffffffffffffffff168273ffffffffffffffffffffffffffffffffffffffff1614156108ec576040517f08c379a00000000000000000000000000000000000000000000000000000000081526004016108e390612bfc565b60405180910390fd5b600360008373ffffffffffffffffffffffffffffffffffffffff1673ffffffffffffffffffffffffffffffffffffffff168152602001908152602001600020549050919050565b6060600180546109429061301d565b80601f016020809104026020016040519081016040528092919081815260200182805461096e9061301d565b80156109bb5780601f10610990576101008083540402835291602001916109bb565b820191906000526020600020905b81548152906001019060200180831161099e57829003601f168201915b5050505050905090565b6109cd611255565b73ffffffffffffffffffffffffffffffffffffffff168273ffffffffffffffffffffffffffffffffffffffff161415610a3b576040517f08c379a0000000000000000000000000000000000000000000000000000000008152600401610a3290612b3c565b60405180910390fd5b8060056000610a48611255565b73ffffffffffffffffffffffffffffffffffffffff1673ffffffffffffffffffffffffffffffffffffffff16815260200190815260200160002060008473ffffffffffffffffffffffffffffffffffffffff1673ffffffffffffffffffffffffffffffffffffffff16815260200190815260200160002060006101000a81548160ff0219169083151502179055508173ffffffffffffffffffffffffffffffffffffffff16610af5611255565b73ffffffffffffffffffffffffffffffffffffffff167f17307eab39ab6107e8899845ad3d59bd9653f200f220920489ca2b5937696c3183604051610b3a9190612a65565b60405180910390a35050565b610b57610b51611255565b83611316565b610b96576040517f08c379a0000000000000000000000000000000000000000000000000000000008152600401610b8d90612cdc565b60405180910390fd5b610ba284848484611650565b50505050565b6007543411610bec576040517f08c379a0000000000000000000000000000000000000000000000000000000008152600401610be390612b5c565b60405180910390fd5b34600781905550603283511115610c38576040517f08c379a0000000000000000000000000000000000000000000000000000000008152600401610c2f90612bbc565b60405180910390fd5b603282511115610c7d576040517f08c379a0000000000000000000000000000000000000000000000000000000008152600401610c7490612cfc565b60405180910390fd5b603281511115610cc2576040517f08c379a0000000000000000000000000000000000000000000000000000000008152600401610cb990612d1c565b60405180910390fd5b8260089080519060200190610cd8929190611a06565b508160099080519060200190610cef929190611a06565b5080600a9080519060200190610d06929190611a06565b503373ffffffffffffffffffffffffffffffffffffffff167fd5d698b584b51b83f49c449c10206a169433d7a30d9c0918af956a2631df057884848434604051610d539493929190612aa2565b60405180910390a2505050565b6060610d6b826111e9565b610daa576040517f08c379a0000000000000000000000000000000000000000000000000000000008152600401610da190612c9c565b60405180910390fd5b600060405180610120016040528060e1815260200161319060e19139905060006040518060400160405280601081526020017f3c7465787420783d273530252720793d00000000000000000000000000000000815250905060006040518060600160405280603e81526020016133a6603e91399050600060405180610120016040528060f581526020016132b160f591399050600060405180602001604052806000815250905060006040518060200160405280600081525090506000604051806020016040528060008152509050600060088054610e889061301d565b905014610eb75785856008604051602001610ea59392919061294e565b60405160208183030381529060405292505b600060098054610ec69061301d565b905014610ef55785856009604051602001610ee393929190612995565b60405160208183030381529060405291505b6000600a8054610f049061301d565b905014610f33578585600a604051602001610f2193929190612907565b60405160208183030381529060405290505b600087848484604051602001610f4c949392919061288f565b60405160208183030381529060405290506000610f9186610f6c846116ac565b604051602001610f7d9291906128d8565b6040516020818303038152906040526116ac565b9050600081604051602001610fa691906129dc565b6040516020818303038152906040529050809a5050505050505050505050919050565b6000600560008473ffffffffffffffffffffffffffffffffffffffff1673ffffffffffffffffffffffffffffffffffffffff16815260200190815260200160002060008373ffffffffffffffffffffffffffffffffffffffff1673ffffffffffffffffffffffffffffffffffffffff16815260200190815260200160002060009054906101000a900460ff16905092915050565b61106760016107c9565b73ffffffffffffffffffffffffffffffffffffffff163373ffffffffffffffffffffffffffffffffffffffff16146110d4576040517f08c379a00000000000000000000000000000000000000000000000000000000081526004016110cb90612c3c565b60405180910390fd5b47811115611117576040517f08c379a000000000000000000000000000000000000000000000000000000000815260040161110e90612b9c565b60405180910390fd5b8173ffffffffffffffffffffffffffffffffffffffff166108fc829081150290604051600060405180830381858888f1935050505015801561115d573d6000803e3d6000fd5b505050565b6000600754905090565b600080823b905060008111915050919050565b60007f01ffc9a7000000000000000000000000000000000000000000000000000000007bffffffffffffffffffffffffffffffffffffffffffffffffffffffff1916827bffffffffffffffffffffffffffffffffffffffffffffffffffffffff1916149050919050565b60008073ffffffffffffffffffffffffffffffffffffffff166002600084815260200190815260200160002060009054906101000a900473ffffffffffffffffffffffffffffffffffffffff1673ffffffffffffffffffffffffffffffffffffffff1614159050919050565b600033905090565b816004600083815260200190815260200160002060006101000a81548173ffffffffffffffffffffffffffffffffffffffff021916908373ffffffffffffffffffffffffffffffffffffffff160217905550808273ffffffffffffffffffffffffffffffffffffffff166112d0836107c9565b73ffffffffffffffffffffffffffffffffffffffff167f8c5be1e5ebec7d5bd14f71427d1e84f3dd0314c0f7b2291e5b200ac8c7c3b92560405160405180910390a45050565b6000611321826111e9565b611360576040517f08c379a000000000000000000000000000000000000000000000000000000000815260040161135790612b7c565b60405180910390fd5b600061136b836107c9565b90508073ffffffffffffffffffffffffffffffffffffffff168473ffffffffffffffffffffffffffffffffffffffff1614806113da57508373ffffffffffffffffffffffffffffffffffffffff166113c2846105a3565b73ffffffffffffffffffffffffffffffffffffffff16145b806113eb57506113ea8185610fc9565b5b91505092915050565b8273ffffffffffffffffffffffffffffffffffffffff16611414826107c9565b73ffffffffffffffffffffffffffffffffffffffff161461146a576040517f08c379a000000000000000000000000000000000000000000000000000000000815260040161146190612c7c565b60405180910390fd5b600073ffffffffffffffffffffffffffffffffffffffff168273ffffffffffffffffffffffffffffffffffffffff1614156114da576040517f08c379a00000000000000000000000000000000000000000000000000000000081526004016114d190612b1c565b60405180910390fd5b6114e583838361186a565b6114f060008261125d565b6001600360008573ffffffffffffffffffffffffffffffffffffffff1673ffffffffffffffffffffffffffffffffffffffff16815260200190815260200160002060008282546115409190612f21565b925050819055506001600360008473ffffffffffffffffffffffffffffffffffffffff1673ffffffffffffffffffffffffffffffffffffffff16815260200190815260200160002060008282546115979190612e40565b92505081905550816002600083815260200190815260200160002060006101000a81548173ffffffffffffffffffffffffffffffffffffffff021916908373ffffffffffffffffffffffffffffffffffffffff160217905550808273ffffffffffffffffffffffffffffffffffffffff168473ffffffffffffffffffffffffffffffffffffffff167fddf252ad1be2c89b69c2b068fc378daa952ba7f163c4a11628f55a4df523b3ef60405160405180910390a4505050565b61165b8484846113f4565b6116678484848461186f565b6116a6576040517f08c379a000000000000000000000000000000000000000000000000000000000815260040161169d90612afc565b60405180910390fd5b50505050565b606060008251905060008114156116d55760405180602001604052806000815250915050611865565b600060036002836116e69190612e40565b6116f09190612e96565b60046116fc9190612ec7565b9050600060208261170d9190612e40565b67ffffffffffffffff81111561174c577f4e487b7100000000000000000000000000000000000000000000000000000000600052604160045260246000fd5b6040519080825280601f01601f19166020018201604052801561177e5781602001600182028036833780820191505090505b5090506000604051806060016040528060408152602001613271604091399050600181016020830160005b868110156118225760038101905062ffffff818a015116603f8160121c168401518060081b905060ff603f83600c1c1686015116810190508060081b905060ff603f8360061c1686015116810190508060081b905060ff603f831686015116810190508060e01b905080845260048401935050506117a9565b50600386066001811461183c576002811461184c57611857565b613d3d60f01b6002830352611857565b603d60f81b60018303525b508484525050819450505050505b919050565b505050565b60006118908473ffffffffffffffffffffffffffffffffffffffff1661116c565b156119f9578373ffffffffffffffffffffffffffffffffffffffff1663150b7a026118b9611255565b8786866040518563ffffffff1660e01b81526004016118db9493929190612a19565b602060405180830381600087803b1580156118f557600080fd5b505af192505050801561192657506040513d601f19601f820116820180604052508101906119239190611e03565b60015b6119a9573d8060008114611956576040519150601f19603f3d011682016040523d82523d6000602084013e61195b565b606091505b506000815114156119a1576040517f08c379a000000000000000000000000000000000000000000000000000000000815260040161199890612afc565b60405180910390fd5b805181602001fd5b63150b7a0260e01b7bffffffffffffffffffffffffffffffffffffffffffffffffffffffff1916817bffffffffffffffffffffffffffffffffffffffffffffffffffffffff1916149150506119fe565b600190505b949350505050565b828054611a129061301d565b90600052602060002090601f016020900481019282611a345760008555611a7b565b82601f10611a4d57805160ff1916838001178555611a7b565b82800160010185558215611a7b579182015b82811115611a7a578251825591602001919060010190611a5f565b5b509050611a889190611a8c565b5090565b5b80821115611aa5576000816000905550600101611a8d565b5090565b6000611abc611ab784612d88565b612d57565b905082815260208101848484011115611ad457600080fd5b611adf848285612fdb565b509392505050565b6000611afa611af584612db8565b612d57565b905082815260208101848484011115611b1257600080fd5b611b1d848285612fdb565b509392505050565b600081359050611b348161311c565b92915050565b600081359050611b4981613133565b92915050565b600081359050611b5e8161314a565b92915050565b600081359050611b7381613161565b92915050565b600081519050611b8881613161565b92915050565b600082601f830112611b9f57600080fd5b8135611baf848260208601611aa9565b91505092915050565b600082601f830112611bc957600080fd5b8135611bd9848260208601611ae7565b91505092915050565b600081359050611bf181613178565b92915050565b600060208284031215611c0957600080fd5b6000611c1784828501611b25565b91505092915050565b60008060408385031215611c3357600080fd5b6000611c4185828601611b3a565b9250506020611c5285828601611be2565b9150509250929050565b60008060408385031215611c6f57600080fd5b6000611c7d85828601611b25565b9250506020611c8e85828601611b25565b9150509250929050565b600080600060608486031215611cad57600080fd5b6000611cbb86828701611b25565b9350506020611ccc86828701611b25565b9250506040611cdd86828701611be2565b9150509250925092565b60008060008060808587031215611cfd57600080fd5b6000611d0b87828801611b25565b9450506020611d1c87828801611b25565b9350506040611d2d87828801611be2565b925050606085013567ffffffffffffffff811115611d4a57600080fd5b611d5687828801611b8e565b91505092959194509250565b60008060408385031215611d7557600080fd5b6000611d8385828601611b25565b9250506020611d9485828601611b4f565b9150509250929050565b60008060408385031215611db157600080fd5b6000611dbf85828601611b25565b9250506020611dd085828601611be2565b9150509250929050565b600060208284031215611dec57600080fd5b6000611dfa84828501611b64565b91505092915050565b600060208284031215611e1557600080fd5b6000611e2384828501611b79565b91505092915050565b600080600060608486031215611e4157600080fd5b600084013567ffffffffffffffff811115611e5b57600080fd5b611e6786828701611bb8565b935050602084013567ffffffffffffffff811115611e8457600080fd5b611e9086828701611bb8565b925050604084013567ffffffffffffffff811115611ead57600080fd5b611eb986828701611bb8565b9150509250925092565b600060208284031215611ed557600080fd5b6000611ee384828501611be2565b91505092915050565b611ef581612f55565b82525050565b611f0481612f79565b82525050565b6000611f1582612dfd565b611f1f8185612e13565b9350611f2f818560208601612fea565b611f388161310b565b840191505092915050565b6000611f4e82612e08565b611f588185612e24565b9350611f68818560208601612fea565b611f718161310b565b840191505092915050565b6000611f8782612e08565b611f918185612e35565b9350611fa1818560208601612fea565b80840191505092915050565b60008154611fba8161301d565b611fc48186612e35565b94506001821660008114611fdf5760018114611ff057612023565b60ff19831686528186019350612023565b611ff985612de8565b60005b8381101561201b57815481890152600182019150602081019050611ffc565b838801955050505b50505092915050565b6000612039600583612e35565b91507f27363525270000000000000000000000000000000000000000000000000000006000830152600582019050919050565b6000612079603283612e24565b91507f4552433732313a207472616e7366657220746f206e6f6e20455243373231526560008301527f63656976657220696d706c656d656e74657200000000000000000000000000006020830152604082019050919050565b60006120df600583612e35565b91507f27333525270000000000000000000000000000000000000000000000000000006000830152600582019050919050565b600061211f602483612e24565b91507f4552433732313a207472616e7366657220746f20746865207a65726f2061646460008301527f72657373000000000000000000000000000000000000000000000000000000006020830152604082019050919050565b6000612185601983612e24565b91507f4552433732313a20617070726f766520746f2063616c6c6572000000000000006000830152602082019050919050565b60006121c5601f83612e24565b91507f6e6f7420656e6f7567682065746865722073656e7420746f20757064617465006000830152602082019050919050565b6000612205602c83612e24565b91507f4552433732313a206f70657261746f7220717565727920666f72206e6f6e657860008301527f697374656e7420746f6b656e00000000000000000000000000000000000000006020830152604082019050919050565b600061226b601283612e24565b91507f6e6f7420656e6f7567682062616c616e636500000000000000000000000000006000830152602082019050919050565b60006122ab602183612e24565b91507f6669727374206c696e652063616e206265206f66203530206279746573206d6160008301527f78000000000000000000000000000000000000000000000000000000000000006020830152604082019050919050565b6000612311603883612e24565b91507f4552433732313a20617070726f76652063616c6c6572206973206e6f74206f7760008301527f6e6572206e6f7220617070726f76656420666f7220616c6c00000000000000006020830152604082019050919050565b6000612377602a83612e24565b91507f4552433732313a2062616c616e636520717565727920666f7220746865207a6560008301527f726f2061646472657373000000000000000000000000000000000000000000006020830152604082019050919050565b60006123dd602983612e24565b91507f4552433732313a206f776e657220717565727920666f72206e6f6e657869737460008301527f656e7420746f6b656e00000000000000000000000000000000000000000000006020830152604082019050919050565b6000612443600283612e35565b91507f227d0000000000000000000000000000000000000000000000000000000000006000830152600282019050919050565b6000612483600783612e35565b91507f3c2f746578743e000000000000000000000000000000000000000000000000006000830152600782019050919050565b60006124c3601583612e24565b91507f796f7520617265206e6f7420746865206f776e657200000000000000000000006000830152602082019050919050565b6000612503602c83612e24565b91507f4552433732313a20617070726f76656420717565727920666f72206e6f6e657860008301527f697374656e7420746f6b656e00000000000000000000000000000000000000006020830152604082019050919050565b6000612569602983612e24565b91507f4552433732313a207472616e73666572206f6620746f6b656e2074686174206960008301527f73206e6f74206f776e00000000000000000000000000000000000000000000006020830152604082019050919050565b60006125cf602f83612e24565b91507f4552433732314d657461646174613a2055524920717565727920666f72206e6f60008301527f6e6578697374656e7420746f6b656e00000000000000000000000000000000006020830152604082019050919050565b6000612635602183612e24565b91507f4552433732313a20617070726f76616c20746f2063757272656e74206f776e6560008301527f72000000000000000000000000000000000000000000000000000000000000006020830152604082019050919050565b600061269b601d83612e35565b91507f646174613a6170706c69636174696f6e2f6a736f6e3b6261736536342c0000006000830152601d82019050919050565b60006126db600583612e35565b91507f27353025270000000000000000000000000000000000000000000000000000006000830152600582019050919050565b600061271b603183612e24565b91507f4552433732313a207472616e736665722063616c6c6572206973206e6f74206f60008301527f776e6572206e6f7220617070726f7665640000000000000000000000000000006020830152604082019050919050565b6000612781602283612e24565b91507f7365636f6e64206c696e652063616e206265206f66203530206279746573206d60008301527f61780000000000000000000000000000000000000000000000000000000000006020830152604082019050919050565b60006127e7600683612e35565b91507f3c2f7376673e00000000000000000000000000000000000000000000000000006000830152600682019050919050565b6000612827602183612e24565b91507f7468697264206c696e652063616e206265206f66203530206279746573206d6160008301527f78000000000000000000000000000000000000000000000000000000000000006020830152604082019050919050565b61288981612fd1565b82525050565b600061289b8287611f7c565b91506128a78286611f7c565b91506128b38285611f7c565b91506128bf8284611f7c565b91506128ca826127da565b915081905095945050505050565b60006128e48285611f7c565b91506128f08284611f7c565b91506128fb82612436565b91508190509392505050565b60006129138286611f7c565b915061291e8261202c565b915061292a8285611f7c565b91506129368284611fad565b915061294182612476565b9150819050949350505050565b600061295a8286611f7c565b9150612965826120d2565b91506129718285611f7c565b915061297d8284611fad565b915061298882612476565b9150819050949350505050565b60006129a18286611f7c565b91506129ac826126ce565b91506129b88285611f7c565b91506129c48284611fad565b91506129cf82612476565b9150819050949350505050565b60006129e78261268e565b91506129f38284611f7c565b915081905092915050565b6000602082019050612a136000830184611eec565b92915050565b6000608082019050612a2e6000830187611eec565b612a3b6020830186611eec565b612a486040830185612880565b8181036060830152612a5a8184611f0a565b905095945050505050565b6000602082019050612a7a6000830184611efb565b92915050565b60006020820190508181036000830152612a9a8184611f43565b905092915050565b60006080820190508181036000830152612abc8187611f43565b90508181036020830152612ad08186611f43565b90508181036040830152612ae48185611f43565b9050612af36060830184612880565b95945050505050565b60006020820190508181036000830152612b158161206c565b9050919050565b60006020820190508181036000830152612b3581612112565b9050919050565b60006020820190508181036000830152612b5581612178565b9050919050565b60006020820190508181036000830152612b75816121b8565b9050919050565b60006020820190508181036000830152612b95816121f8565b9050919050565b60006020820190508181036000830152612bb58161225e565b9050919050565b60006020820190508181036000830152612bd58161229e565b9050919050565b60006020820190508181036000830152612bf581612304565b9050919050565b60006020820190508181036000830152612c158161236a565b9050919050565b60006020820190508181036000830152612c35816123d0565b9050919050565b60006020820190508181036000830152612c55816124b6565b9050919050565b60006020820190508181036000830152612c75816124f6565b9050919050565b60006020820190508181036000830152612c958161255c565b9050919050565b60006020820190508181036000830152612cb5816125c2565b9050919050565b60006020820190508181036000830152612cd581612628565b9050919050565b60006020820190508181036000830152612cf58161270e565b9050919050565b60006020820190508181036000830152612d1581612774565b9050919050565b60006020820190508181036000830152612d358161281a565b9050919050565b6000602082019050612d516000830184612880565b92915050565b6000604051905081810181811067ffffffffffffffff82111715612d7e57612d7d6130dc565b5b8060405250919050565b600067ffffffffffffffff821115612da357612da26130dc565b5b601f19601f8301169050602081019050919050565b600067ffffffffffffffff821115612dd357612dd26130dc565b5b601f19601f8301169050602081019050919050565b60008190508160005260206000209050919050565b600081519050919050565b600081519050919050565b600082825260208201905092915050565b600082825260208201905092915050565b600081905092915050565b6000612e4b82612fd1565b9150612e5683612fd1565b9250827fffffffffffffffffffffffffffffffffffffffffffffffffffffffffffffffff03821115612e8b57612e8a61304f565b5b828201905092915050565b6000612ea182612fd1565b9150612eac83612fd1565b925082612ebc57612ebb61307e565b5b828204905092915050565b6000612ed282612fd1565b9150612edd83612fd1565b9250817fffffffffffffffffffffffffffffffffffffffffffffffffffffffffffffffff0483118215151615612f1657612f1561304f565b5b828202905092915050565b6000612f2c82612fd1565b9150612f3783612fd1565b925082821015612f4a57612f4961304f565b5b828203905092915050565b6000612f6082612fb1565b9050919050565b6000612f7282612fb1565b9050919050565b60008115159050919050565b60007fffffffff0000000000000000000000000000000000000000000000000000000082169050919050565b600073ffffffffffffffffffffffffffffffffffffffff82169050919050565b6000819050919050565b82818337600083830152505050565b60005b83811015613008578082015181840152602081019050612fed565b83811115613017576000848401525b50505050565b6000600282049050600182168061303557607f821691505b60208210811415613049576130486130ad565b5b50919050565b7f4e487b7100000000000000000000000000000000000000000000000000000000600052601160045260246000fd5b7f4e487b7100000000000000000000000000000000000000000000000000000000600052601260045260246000fd5b7f4e487b7100000000000000000000000000000000000000000000000000000000600052602260045260246000fd5b7f4e487b7100000000000000000000000000000000000000000000000000000000600052604160045260246000fd5b6000601f19601f8301169050919050565b61312581612f55565b811461313057600080fd5b50565b61313c81612f67565b811461314757600080fd5b50565b61315381612f79565b811461315e57600080fd5b50565b61316a81612f85565b811461317557600080fd5b50565b61318181612fd1565b811461318c57600080fd5b5056fe3c73766720786d6c6e733d27687474703a2f2f7777772e77332e6f72672f323030302f73766727207072657365727665417370656374526174696f3d27784d696e594d696e206d656574272076696577426f783d273020302035353020323530273e3c7374796c653e2e62617365207b2066696c6c3a2077686974653b20666f6e742d66616d696c793a2073616e732d73657269663b20666f6e742d73697a653a20323270783b207d3c2f7374796c653e3c726563742077696474683d273130302527206865696768743d2731303025272066696c6c3d27626c61636b27202f3e4142434445464748494a4b4c4d4e4f505152535455565758595a6162636465666768696a6b6c6d6e6f707172737475767778797a303132333435363738392b2f7b226e616d65223a20225468652042696c6c626f617264222c20226465736372697074696f6e223a202246756c6c79206f6e20636861696e2062696c6c626f6172642e2054686973204e465420646973706c61797320746865206c617465737420746578742073746f72656420696e205468652042696c6c626f617264202833206c696e6573206f6620353020627974657320656163682920616e6420616c6c6f777320697473206f776e657220746f20636f6e74726f6c2074686520636f6e74726163742062616c616e63652e222c2022696d616765223a2022646174613a696d6167652f7376672b786d6c3b6261736536342c20636c6173733d27626173652720646f6d696e616e742d626173656c696e653d276d6964646c652720746578742d616e63686f723d276d6964646c65273ea26469706673582212200099f9e21d4c6dda0b1632170f78ae6793b977ef593f9e88035b659c5d48cd8864736f6c63430008000033",
  "linkReferences": {},
  "deployedLinkReferences": {}
}